:020000040800F2
:10000000880400200101000897120008BB0E0008B8
:10001000951200084901000879130008000000004B
:10002000000000000000000000000000BB120008FB
:100030004B01000800000000B9120008BD120008C2
:100040001B0100081B0100081B0100081B01000820
:100050001B0100081B0100081B0100081B01000810
:100060001B0100081B0100081B0100081B01000800
:100070001B0100081B0100081B0100081B010008F0
:100080001B0100081B0100081B0100081B010008E0
:100090001B0100081B0100081B0100081B010008D0
:1000A0001B0100081B0100081B0100081B010008C0
:1000B0001B0100081B0100081B0100081B010008B0
:1000C0001B0100081B0100081B0100081B010008A0
:1000D0001B0100081B0100081B0100081B01000890
:1000E0001B0100081B0100081B010008DFF80CD0F1
:1000F00000F018F800480047111600088804002096
:100100000648804706480047FEE7FEE7FEE7FEE7B1
:10011000FEE7FEE7FEE7FEE7FEE7FEE73113000835
:10012000ED000008064C074D06E0E06840F00103D2
:1001300094E8070098471034AC42F6D3FFF7DAFF93
:10014000F016000810170008FEE7704770B5044667
:1001500000F0ECF80546601C02D004480078044426
:1001600000F0E4F8401BA042FAD370BD200000204C
:100170002DE9F84FDFF890A100220AF1040B144694
:1001800001274FF00F090BF1040E00BF0B6807FAAF
:1001900004F52B40AB4274D1DFF870C14E68A6EB7A
:1001A0000C0866452BD00DDC032E34D005DC36B3AD
:1001B000012E19D0022E2FD11BE0112E16D0122E97
:1001C0002AD119E0B8F5881F19D006DCB8F5803FB0
:1001D00015D0B8F5801F1FD111E0B8F5001F0ED063
:1001E000B8F5041F18D10AE0CA6815E0CA68121DE4
:1001F00012E0CA6808320FE0CA680C320CE08A6864
:100200002AB1012A4FF0080203D0456104E004221C
:1002100002E0056100E00022FF2B01D8064601E064
:1002200000F104064FEA840501D9A5F12005D6F8AE
:1002300000C009FA05F82CEA080C02FA05F54CEAA8
:10024000050CC6F800C04D68ED0057D5304DAE69BD
:1002500046F00106AE61AD6924F0030605F0010524
:1002600000952C4D06EB050CDCF80850A6074FEA6C
:10027000167809FA08F6B543274EB04202D1002697
:1002800010E03BE0254EB04201D101260AE0244EA9
:10029000B04201D1022605E0224EB04201D1032630
:1002A00000E0042606FA08F62E43CCF808604D68F4
:1002B000DAF80060ED03554601D51E4300E09E4389
:1002C0002E604D68DBF80060AD035D4601D51E432E
:1002D00000E09E432E604D68DEF80060ED0275463A
:1002E00001D51E4300E09E432E604D68AD020E4DC9
:1002F0002E6801D51E4300E09E432E60641C102C26
:10030000FFF444AFBDE8F88F000401400000111075
:10031000001002400000014000080140000C0140B4
:1003200000100140001401400C04014001488068A5
:10033000704700002000002070B504001BD094F826
:100340003D00002520B984F83C50204600F042FAD8
:10035000242084F83D002068016821F0010101603B
:1003600000F0BEFB404A6168914201D83F4900E07D
:100370003F49884201D2012070BD3E492368B0FB4D
:10038000F1F159606368934206D94FF4967359436B
:100390004FF47A73B1FBF3F12368491C1962616869
:1003A000914210D84900401EB0FBF1F2521CC2F33A
:1003B0000B02042A01D2042022E0B0FBF1F0401C21
:1003C000C0F30B001CE0A368CBB301EBC10202EB4E
:1003D0000116421EB2FBF6F2521C42F48042120594
:1003E00036D06BB301EBC10202EB0111401EB0FB32
:1003F000F1F0401CC0F30B0040F4804040F400409A
:100400002168C861D4E90701084321680860D4E97C
:100410000310084321688860D4E905010843216876
:10042000C8602068016841F0010101602564202056
:1004300084F83D00256384F83E50002070BD00E044
:1004400008E001EB4106421EB2FBF6F2521CC6E781
:100450000120D5E701EB4101401EB0FBF1F0401C4B
:10046000C0F30B00CAE70000A086010080841E00D4
:1004700000093D0040420F002DE9FF4F83B09A462E
:10048000DDE9118793460446DDF84090FFF74EFF03
:10049000054694F83D00202872D1192301227B499A
:1004A0002046009500F00DFE0028F5D194F83C00A0
:1004B000012865D0012084F83C0020680168C90744
:1004C00003D1016841F0010101602068016821F455
:1004D00000610160222084F83D00402084F83E0045
:1004E00000262664C4F82490A4F82A806848E062B4
:1004F000608D2085CDE9007553465A462046049903
:1005000000F0F0FC28B1206C84F83C60042851D045
:1005100075E0208DDFF87C8168B1012814D00228B5
:10052000206801681ED041F4806101602068416943
:10053000806900909BE020684169816900910168B1
:1005400041F40071016092E02068016821F480614B
:10055000016072B62068416981690091016841F4C7
:1005600000710AE041F40061016072B620684169DF
:1005700081690091016821F48061016062B676E0D2
:1005800081E0032850D801280BD002283B464FF0C9
:10059000000241462046009512D000F092FD70BB4B
:1005A00013E02A463946204600F000FE30B1206CA8
:1005B000202824D0012007B0BDE8F08F20684BE050
:1005C00000F07FFDD8B972B61BE02068016821F405
:1005D0008061016072B620680169606A421C6262D3
:1005E0000170208D401E2085608D401E60853B4639
:1005F000002241462046009500F063FD08B103202B
:10060000D9E72068016841F4007101602068016940
:10061000606A421C62620170208D401E2085608DE0
:10062000401E608562B6C9E72A463946204600F07A
:10063000BDFD0028BBD120680169606A421C62626E
:100640000170208D401E2085608D401E60852068D1
:100650004169C94349070AD40169606A421C626260
:100660000170208D401E2085608D401E6085208D8C
:10067000002886D1202084F83D0084F83E6084F86C
:100680003C60002097E7022095E700000200100080
:100690000000FFFF040001002DE9FF4F83B09A46E0
:1006A000DDE9118793460446DDF84090FFF73EFEF2
:1006B000064694F83D0020287DD1192301224349A4
:1006C0002046009600F0FDFC00287CD194F83C0008
:1006D000012878D0012084F83C0020680168C9070F
:1006E00003D1016841F0010101602068016821F433
:1006F00000610160212084F83D00402084F83E0024
:1007000000252564C4F82490A4F82A803048E062CB
:10071000608D2085CDE9007653465A4620460499DF
:1007200000F058FC80B3206C84F83C50042848D07A
:1007300008E032463946204600F069FD30B1206CB1
:10074000042839D0032007B0BDE8F08F606A411C4F
:100750006162216800780861208D401E80B220858A
:10076000618D491E618521684A69D24352070BD4C5
:1007700068B1606A421C626200780861208D401E88
:100780002085608D401E6085208D0028D1D13246A5
:100790003946204600F06EFC0028D0D154F83D0BBD
:1007A000016841F400710160202004F81E09E5771A
:1007B00065770020C7E706E02068016841F4007112
:1007C00001600120BFE70220BDE700000200100029
:1007D0000000FFFF00B500680C4985B0884212D1C7
:1007E000C020009012200190032003906946084821
:1007F000FFF7BEFC0748C16941F40011C161C0693F
:1008000000F40010049005B000BD0000005400404A
:10081000000C014000100240024881680278114437
:100820008160704720000020074810B5016841F042
:1008300010010160032000F091F8002000F006F89C
:1008400000F024F8002010BD0020024070B50D4DCE
:1008500004464FF47A712878B1FBF0F00A49096830
:10086000B1FBF0F000F011FB48B9102C07D20022C8
:100870002146501E00F052F800206C6070BD01202F
:1008800070BD0000200000202C000020214808B589
:10089000816941F001018161816901F001010091EB
:1008A000C16941F08051C161C06900F08050009081
:1008B000032000F053F8002211466FF00B0000F007
:1008C0002DF8002211466FF00A0000F027F80022F0
:1008D00011466FF0090000F021F800221146501F68
:1008E00000F01CF800221146101F00F017F800223B
:1008F0001146901E00F012F800221146501E00F022
:100900000DF80548416821F0E06141F00071416057
:1009100008BD00000010024000000140F0B40E4B82
:100920001B680C46C3F30223C3F10705042D00D94D
:100930000425191D072901D2002300E0DB1E012632
:1009400006FA05F1491E214099409E40761E164048
:100950003143F0BC00F0A0BC0CED00E0064900F013
:10096000070208684FF6FF03184040EA0220034AD6
:1009700010430860704700000CED00E00000FA052D
:100980002DE9F047DFF83C8105460E46D8F8000017
:1009900000F00700B0420CD2D8F8001021F0070197
:1009A0003143C8F80010D8F8000000F00700B0424A
:1009B00063D12878444C800705D56068A96820F089
:1009C000F000084360602878C00745D068680128B7
:1009D00016D02168022816D0890700294DDA6168EF
:1009E00021F0030101436160FFF7A0FC696807463D
:1009F00041F2883001290FD00229814619D027E021
:100A000021688903E9E78901E7E700BFFFF78EFC6A
:100A1000C11B494501D918E081466068C0F38100D7
:100A20000128F3D118E000BFFFF780FCC11B494546
:100A30000BD86068C0F381000228F5D10CE000BF3C
:100A4000FFF774FCC11B494502D90320BDE8F087BC
:100A5000606810F00C0FF3D1D8F80010404601F098
:100A60000701B1420BD9016821F007013143016050
:100A7000006800F00700B04201D00120E6E72878C6
:100A8000400705D56068E96820F4E06008436060CD
:100A90002878000706D56068296920F4605040EA8C
:100AA000C100606000F02CF86168084AC1F30311CE
:100AB000515CC840064908600020FFF7C7FE0020CF
:100AC000C4E700000020024000100240D8160008D1
:100AD0002C00002001480068704700002C00002016
:100AE0000448054900684968044AC1F30221515C81
:100AF000C84070472C00002000100240E816000893
:100B000012A185B00FC98DE80F0014A0144A006827
:100B100004905168134801F00C03042B10D0082BEB
:100B20000ED1C1F38343C9031DF803000AD55168F0
:100B300004AAC1F34041515C0A4A5043B0FBF1F0B2
:100B400005B0704708494843FAE70000020304056E
:100B5000060708090A0B0C0D0E0F10100102000009
:100B60000010024000127A0000093D002DE9F84F04
:100B700004460078B94DC00748D06868C0F38100CA
:100B8000012807D06868C0F38100022809D168688D
:100B9000C00306D52868800338D5606800286FD068
:100BA00034E06068B0F5803F0BD010B1B0F5A02FF5
:100BB00011D0286820F480302860286820F4802034
:100BC00002E0286840F480302860606888B1FFF750
:100BD000ADFB064609E0286840F480202860F0E775
:100BE000FFF7A4FB801B642875D828688003F7D51D
:100BF0000CE0FFF79BFB064605E000BFFFF796FB06
:100C0000801B6428F0D828688003F7D42078944E9D
:100C100080074FF001094FF000083BD5686810F0DD
:100C20000C0F07D06868C0F38100022809D16868FA
:100C3000C00306D42868800714D5206901281FD175
:100C400010E02069B0B1C6F80090FFF76FFB0746CF
:100C500005E000BFFFF76AFBC01B0228C4D8286864
:100C60008007F7D52868616920F0F80040EAC100E4
:100C700028600FE0C6F80080FFF758FB074606E043
:100C8000E9E000BFFFF752FBC01B022823D8286809
:100C90008007F7D4207800072CD57248A169D9B114
:100CA000C0F80090FFF742FB074604E0FFF73EFB69
:100CB000C01B02280FD8686A8007F7D56A484FF42E
:100CC000FA510068B0FBF1F0009000BF0098411E9F
:100CD0000091FAD20EE080E0C0F80080FFF726FB1A
:100CE000074604E0FFF722FBC01B022875D8686A9C
:100CF0008007F7D42078400760D5E8690027C00056
:100D000008D4E86940F08050E861E869012700F004
:100D10008050009055480168C90513D40168834686
:100D200041F480710160FFF701FB824606E000BFDD
:100D3000FFF7FCFAA0EB0A0064284ED8DBF80000AD
:100D4000C005F5D5E06801280AD008B1052813D000
:100D5000286A20F001002862286A20F0040002E0DE
:100D6000286A40F001002862E06841F2883B98B1AF
:100D7000FFF7DCFA82460BE0286A40F004002862A4
:100D8000EEE700BFFFF7D2FAA0EB0A0159455AD8A7
:100D9000286A8007F6D50CE0FFF7C8FA824605E01E
:100DA000FFF7C4FAA0EB0A0159454CD8286A80071E
:100DB000F6D41FB1E86920F08050E861E06988B39B
:100DC0006968C1F38101022945D00228C6F8608014
:100DD00004D0FFF7ABFA044638E034E0FFF7A6FA98
:100DE000074604E0FFF7A2FAC01B02282BD82868A8
:100DF0008001F7D4206AB0F5803F05D16868A1680A
:100E000020F4003008436860D4E9080108436968A9
:100E100021F4741108436860C6F86090FFF786FA01
:100E2000044606E015E000BFFFF780FA001B022829
:100E300009D828688001F7D50BE000BFFFF776FAE4
:100E4000001B022802D90320BDE8F88F2868800122
:100E5000F4D40020F8E70120F6E70000001002407B
:100E600000004242800442422C00002000700040FA
:100E70004FF0E0210428086903D020F00400086145
:100E8000704740F00400FAE7704710B5401EB0F11B
:100E9000807F01D3012010BD4FF0E02460610F215D
:100EA000601700F0F9F90020A06107202061002000
:100EB00010BD10B5FFF7E8FF10BDFEE701684A69F5
:100EC000D24352050CD46FF480624A61042101645C
:100ED000002140F8301F2022427301730120704727
:100EE000002070472DE9F84F0446006889460B9DA5
:100EF00001689846174641F48061016020680168E6
:100F000041F48071016000954FF0011A00225146B2
:100F100020460A9B00F0D5F8F0BB216809F0FE00DE
:100F200008610AF1010B2B46594620460A9A00F047
:100F3000F9F818B1206C042812D03AE02068416911
:100F4000806900902A4620460A9900F060F950B165
:100F5000206C04282DD12068016841F400710160E3
:100F60000120BDE8F88FFEB2B8F1010F09D0216869
:100F7000380A08612A4620460A9900F048F90028F4
:100F8000E6D1206806612A4620460A9900F03FF91A
:100F90000028DDD1206800E00BE0016841F4807199
:100FA000016000950022514620460A9B00F089F816
:100FB00008B10320D5E7216809F0FF0040F00100E7
:100FC00008612B46594620460A9A00F0ABF80028E3
:100FD000B0D1C6E72DE9F843044600680D46DDE9C7
:100FE000089701689846164641F4807101604B46A7
:100FF00000224FF001112046009700F062F8E8B996
:10100000216805F0FE0008613B464A461849204623
:1010100000F088F828B1206C04280FD10120BDE829
:10102000F88320684169806900903A464946204625
:1010300000F0EDF820B1206C042813D00320EEE777
:10104000F5B2B8F1010F09D02168300A08613A46BB
:101050004946204600F0DBF80028ECD12068056105
:101060000020DCE72068016841F400710160D5E7E9
:101070000200010070B516460D4604461AE02046EF
:10108000FFF71CFF08B1012070BD681C12D025B10C
:10109000FFF74CF9801BA8420CD954F8400F40F0E0
:1010A000200044F810090020206020216173207383
:1010B000032070BD20684069C0434007DFD4002092
:1010C00070BD2DE9F0471E4690460D460446C1F31B
:1010D0000747DDF8209012E0701C10D02EB1FFF70A
:1010E00025F9A0EB0900B04209D9002044F8300FDF
:1010F00020216173A07320730320BDE8F08720686E
:10110000012F0AD0806925EA00000004000C06D0F7
:1011100000214145E0D00020EFE74069F3E70121DD
:10112000F7E700002DE9F0479A4691460D46044640
:1011300000264FF02008C1F307472AE020684069E5
:10114000C043400512D42068016841F40071016079
:1011500021686FF48060486104202064266384F86D
:101160003D8084F83C600120BDE8F087B9F1FF3F85
:101170000FD0B9F1000F05D0FFF7D8F8A0EB0A01A6
:10118000494506D944F8306F84F80D802673032052
:10119000EAE72068012F07D0D0F8180025EA000000
:1011A0000004000CE0D0C9E74069F7E72DE9F04101
:1011B000002590460E460446202721E04069C043A2
:1011C000C0060CD421686FF01000486125642563C7
:1011D00084F83D7084F83C500120BDE8F0812EB1C8
:1011E000FFF7A4F8A0EB0800B04209D954F8400F6B
:1011F00040F0200044F80409677025700320ECE7F4
:1012000020684169C9434906D8D40020E5E770B594
:1012100016460D4604461AE02046FFF74FFE08B179
:10122000012070BD681C12D025B1FFF77FF8801B2C
:10123000A8420CD954F8400F40F0200044F810099F
:1012400000202060202161732073032070BD20687E
:101250004069C0430006DFD4002070BD0B4810B5C4
:10126000094901600A49416000214FF480428160D0
:10127000C0E9031241618161C1610162FFF75CF85D
:10128000002800D0FEE710BD0054004030000020D0
:10129000A0860100FEE770470907090E002806DA5C
:1012A00000F00F0000F1E02080F8141D704700F1FD
:1012B000E02080F8001470477047704710B5FFF7C2
:1012C000ABFABDE81040FFF7F4BD30B58FB0012197
:1012D0000804CDE900100024029402250491CDE910
:1012E0000750000109906846FFF740FC00B1FEE797
:1012F0000F20CDE90A054FF48060CDE90C400121B3
:101300000AA80E94FFF73CFB00B1FEE7FFF7E2FBF3
:101310004FF47A71B0FBF1F0FFF7B7FD0420FFF74F
:10132000A7FD00221146501EFFF7F8FA0FB030BD9E
:101330000D48016841F00101016041680B4A11400C
:10134000416001680A4A11400160016821F480216E
:101350000160416821F4FE0141604FF41F0181608A
:101360000449C00308607047001002400000FFF805
:10137000FFFFF6FE08ED00E0FEE702E008C8121FDE
:1013800008C1002AFAD170477047002001E001C16E
:10139000121F002AFBD1704708B50E21684600F0E5
:1013A000A9F8002809D19DF800004FF4106100F061
:1013B0007F0000EB800001EB800008BD08B50F2125
:1013C000684600F097F8002809D19DF800004FF416
:1013D000106100F07F0000EB800001EB800008BD91
:1013E00008B51021684600F085F8002808D19DF85E
:1013F000000000F07F00C0EB4010C0EB0010153083
:1014000008BD08B51121684600F074F800280BD11A
:101410009DF8000000F07F0000EBC00101EB001020
:1014200040F6282101EB800008BD38B504460221B2
:10143000684600F05FF8002804D19DF800004006DF
:1014400001D5002038BD14B18022114601E04022B0
:101450001146022000F0B2F838BD002230210720EA
:1014600000F0ACB810221146032000F0A7B810B568
:1014700010B10822042401E00022144608210220B1
:1014800000F09CF822460421BDE81040022000F044
:1014900095B820221146032000F090B808B500202E
:1014A0008DF800000B21684600F024F808B10420F4
:1014B00008BD9DF8000000F01800C00808BD08B580
:1014C00000208DF800000B21684600F013F808B1E9
:1014D000052008BD9DF8000000F0E000400908BDAF
:1014E00010B5FFF7BAFFBDE810404FF4206000F0E0
:1014F00030B800000EB501236422CDE9000302924A
:101500000A46D4210348FEF7B7FF002800D0012087
:101510000EBD00003000002008B513216846FFF71B
:10152000E9FF00280AD19DF8000000F03F0000EB21
:10153000C00101EB0010642101EB400008BD8022D6
:101540001146142000F03AB840221146032000F062
:1015500035B8C11700EB9160C0F387127F210420DA
:1015600000F02CB8A0F57060C11700EB11700009F5
:101570008006020EFC21062000F020B841F2C611C0
:1015800041F28652884201D2084602E0904200D9D8
:101590001046A0F58850C638C11700EB9160F021C5
:1015A00001EAA0020A2000F009B82821B0FBF1F0FE
:1015B0000007020E30210720AFF30080F8B50D467A
:1015C0000646014614466846FFF794FF00280AD1F4
:1015D0009DF8000004EA0501A84301438DF80010BE
:1015E000304600F001F8F8BD03B583B06423012252
:1015F00004A98DE80E0013460246D4210348FFF7E4
:101600004BF8002800D0012005B000BD30000020BC
:1016100008B5FFF709F9FFF758FE2D48816941F039
:1016200020018161816901F020010091816941F00F
:1016300004018161816901F004010091816941F037
:1016400008018161806900F008000090FFF706FE44
:101650004FF49670FEF77AFDFFF771FFFFF7FDFE7E
:10166000FFF73EFFFFF715FF41F27C50FFF786FFC3
:101670000120FFF7FCFE0020FFF7D7FEFFF7F2FE88
:1016800041F23600FFF76EFFA020FFF78EFF114CEE
:101690004FF4FA75FFF780FE6060FFF7B2FEA060BE
:1016A000FFF78CFE2061FFF70AFF2070FFF734FF81
:1016B000E061FFF795FEE060FFF72EFFA061FFF706
:1016C00043FFFFF7EBFE60612846FEF73FFDE1E7D1
:1016D0000010024000000020000000000000000098
:1016E00001020304060708090000000001020304C8
:1016F0001017000800000020300000007A130008D6
:101700004017000830000020580400008A13000829
:1017100000000000000000000000000000000000C9
:1017200000000000000000000000000000000000B9
:1017300001000000100000000000000000A24A04A8
:04000005080000ED02
:00000001FF
